:020000040800F2
:1000000088060020C1010008C9010008CB010008D2
:10001000CD010008CF010008D10100080000000058
:10002000000000000000000000000000D3010008F4
:10003000D501000800000000D70100087D0200087B
:10004000DB010008DB010008DB010008DB01000820
:10005000DB010008DB010008DB010008DB01000810
:10006000DB010008DB010008DB010008DB01000800
:10007000DB010008DB010008DB010008DB010008F0
:10008000DB010008DB010008DB010008DB010008E0
:10009000DB010008DB010008DB010008DB010008D0
:1000A000DB010008DB010008DB010008DB010008C0
:1000B000DB010008DB010008DB010008DB010008B0
:1000C000DB010008DB010008DB010008DB010008A0
:1000D000DB010008DB010008DB010008DB01000890
:1000E000DB010008DB010008DB010008DB01000880
:1000F000DB0100080000000000000000DB01000838
:100100000000000000000000DB010008DB01000827
:10011000DB010008DB010008DB0100080000000033
:10012000DB01000800F002F800F03AF80AA090E8BD
:10013000000C82448344AAF10107DA4501D100F0A2
:100140002FF8AFF2090EBAE80F0013F0010F18BF35
:10015000FB1A43F0010318470405000024050000C2
:10016000103A24BF78C878C1FAD8520724BF30C8E3
:1001700030C144BF04680C607047000000230024B5
:1001800000250026103A28BF78C1FBD8520728BFA7
:1001900030C148BF0B6070471FB51FBD10B510BD03
:1001A00000F031F81146FFF7F7FF00F0D3F900F047
:1001B0004FF803B4FFF7F2FF03BC00F057F800005C
:1001C0000948804709480047FEE7FEE7FEE7FEE7EB
:1001D000FEE7FEE7FEE7FEE7FEE7FEE70448054927
:1001E000054A064B704700009502000825010008EB
:1001F0008800002088060020880200208802002055
:10020000704770477047754600F02CF8AE46050001
:100210006946534620F00700854618B020B5FFF721
:10022000DDFFBDE820404FF000064FF000074FF023
:1002300000084FF0000B21F00701AC46ACE8C00904
:10024000ACE8C009ACE8C009ACE8C0098D4670470D
:1002500010B50446AFF300802046BDE81040FFF71C
:10026000A8BF000000487047240000200149182062
:10027000ABBEFEE72600020070470000044800689D
:1002800020B103480068401E014908607047000023
:10029000000000201448006840F480701249086093
:1002A000114808300068114908400F4908310860BA
:1002B0000D4800680E4908400B4908600846006870
:1002C00020F48020086008480830006820F47D0091
:1002D0000549083108600020091D08604FF00060E2
:1002E0000449086070470000003802400CC0FF88D5
:1002F000FEFFFEEE08ED00E00349086000BF024982
:1003000009680029FBD170470000002010B50120CA
:1003100000F002F810BD000070B50446002500266C
:1003200025462D09F02000EA05164FF00050164929
:100330000860801308604FF4700014490860084694
:1003400006600220FFF7D8FF4FF000400E4908601A
:10035000254605F00F05F02000EA05164FF0005085
:100360000860801308604FF4700008490860084670
:1003700006600120FFF7C0FF4FF00040024908600F
:100380000220FFF7B9FF70BD1804024018080240B0
:1003900070B504460025002625462D09F02000EA08
:1003A00005164FF42040134908604FF470001249BD
:1003B0000860084606600220FFF79EFF4FF00040ED
:1003C0000C490860254605F00F05F02000EA0516E7
:1003D0004FF4204008604FF4700007490860084659
:1003E00006600220FFF788FF4FF0004001490860D7
:1003F00070BD0000180402401808024070B50446A1
:100400000D460026022C03D9102D01D9761E1DE0C1
:100410002CB905F18001C8B2FFF77EFF16E0012C70
:1004200005D105F1C001C8B2FFF776FF0EE0022C3E
:1004300005D105F19401C8B2FFF76EFF06E0032C69
:1004400004D105F1D401C8B2FFF766FF304670BD94
:1004500010B53348006820F07C40314908600846F8
:10046000006840F0A84008602D480C30006840F05B
:10047000A8402B490C310860081F006840F0A840D4
:10048000091F08602748006820F47F40254908605C
:100490000846006840F4AA40086022480C30006812
:1004A00040F4AA401F490C310860081F006840F45E
:1004B000AA40091F08600120FFF71EFF2220FFF756
:1004C0002BFF0120FFF718FF2C20FFF725FF01204D
:1004D000FFF712FF0820FFF71FFF0120FFF70CFFB7
:1004E0000120FFF719FF0120FFF706FF0620FFF7A5
:1004F00013FF0120FFF700FF1420FFF70DFF01207D
:10050000FFF7FAFE0C20FFF707FF0120FFF7F4FECC
:100510008020FFF701FF0220FFF7EEFE10BD000074
:10052000000402400008024010B50446E0B2FFF7A4
:100530002FFF10BD70B50446102503E02078FFF7AB
:10054000F3FF641C207820B1281EA5F10101CDB273
:10055000F4D170BD3548006840F0010033490860AF
:100560000846006840F0020008600846006840F055
:10057000040008602E48006840F480302C49086070
:100580000846006840F4802008602A48006820F08F
:10059000030028490860284800684FF47A72B0FBCD
:1005A000F2F1481EB0F1807F00D31BE0481E4FF0EF
:1005B000E022506150170F22002804DB13071C0EA5
:1005C0001E4B1C5406E013071D0E1D4B00F00F04BC
:1005D000241F1D5500BF00204FF0E022906107202E
:1005E000106100BFFFF734FFFFF790FE04210020E9
:1005F000FFF704FF13A0FFF79DFF04210120FFF781
:10060000FDFE13A0FFF796FF0FE04FF4807008493E
:10061000183108606420FFF76FFE4FF080700449C6
:10062000183108606420FFF767FEEEE71C380240CF
:1006300000080240000002400400002000E400E046
:1006400018ED00E0204C4344205445535420000052
:1006500020446F6E65212020000000007C06000809
:10066000000000202400000060010008A00600082F
:1006700024000020640600007C0100080000000047
:100680000048E801030406080C10182030000000A0
:100690000000000000010203040607080900000032
:04000005080001C12D
:00000001FF
