:020000040800F2
:1000000088060020C1010008C9010008CB010008D2
:10001000CD010008CF010008D10100080000000058
:10002000000000000000000000000000D3010008F4
:10003000D501000800000000D7010008E90500080C
:10004000DB010008DB010008DB010008DB01000820
:10005000DB010008DB010008DB010008DB01000810
:10006000DB010008DB010008DB010008DB01000800
:10007000DB010008DB010008DB010008DB010008F0
:10008000DB010008DB010008DB010008DB010008E0
:10009000DB010008DB010008DB010008DB010008D0
:1000A000DB010008DB010008DB010008DB010008C0
:1000B000DB010008DB010008DB010008DB010008B0
:1000C000DB010008DB010008DB010008DB010008A0
:1000D000DB010008DB010008DB010008DB01000890
:1000E000DB010008DB010008DB010008DB01000880
:1000F000DB0100080000000000000000DB01000838
:100100000000000000000000DB010008DB01000827
:10011000DB010008DB010008DB0100080000000033
:10012000DB01000800F002F800F03AF80AA090E8BD
:10013000000C82448344AAF10107DA4501D100F0A2
:100140002FF8AFF2090EBAE80F0013F0010F18BF35
:10015000FB1A43F001031847540A0000740A000018
:10016000103A24BF78C878C1FAD8520724BF30C8E3
:1001700030C144BF04680C607047000000230024B5
:1001800000250026103A28BF78C1FBD8520728BFA7
:1001900030C148BF0B6070471FB51FBD10B510BD03
:1001A00000F031F81146FFF7F7FF00F0ABFB00F06D
:1001B0004FF803B4FFF7F2FF03BC00F057F800005C
:1001C0000948804709480047FEE7FEE7FEE7FEE7EB
:1001D000FEE7FEE7FEE7FEE7FEE7FEE70448054927
:1001E000054A064B7047000001060008250100087B
:1001F0008800002088060020880200208802002055
:10020000704770477047754600F02CF8AE46050001
:100210006946534620F00700854618B020B5FFF721
:10022000DDFFBDE820404FF000064FF000074FF023
:1002300000084FF0000B21F00701AC46ACE8C00904
:10024000ACE8C009ACE8C009ACE8C0098D4670470D
:1002500010B50446AFF300802046BDE81040FFF71C
:10026000A8BF000000487047240000200149182062
:10027000ABBEFEE7260002007047CA43026070472B
:1002800021B1826842F00102826003E0826822F0BC
:10029000010282607047000001460020044A106895
:1002A00020F440300A681043014A10607047000093
:1002B00004270140002101607047000010B504468A
:1002C0000548844207D10121401500F05DF9002165
:1002D000601500F059F910BD002401400146886DF9
:1002E00080B270470246002013680B400BB101201A
:1002F00000E000207047000030B5024600200023D7
:100300005068104C20400D790C6844EA05242043C5
:10031000506090680C4C2040D1E903542C438D6808
:100320002C434D7944EA4504204301249460106B2A
:1003300020F0F8700C7D641EE4B2234340EA0350C1
:10034000106330BDFFFEFFFCFDF7FFC01AB143682C
:100350000B43436002E043688B4343607047F0B552
:1003600004460D46002000211D2D11DDE068A5F199
:100370001E0606EB4607072606FA07F18843A5F195
:100380001E0606EB460603FA06F10843E06034E079
:10039000132D11DDE068A5F1140606EB46070726CC
:1003A00006FA07F18843A5F1140606EB460603FAA0
:1003B00006F10843E06020E0092D11DD2069A5F178
:1003C0000A0606EB4607072606FA07F18843A5F159
:1003D0000A0606EB460603FA06F1084320610CE024
:1003E000606905EB4507072606FA07F1884305EB28
:1003F000450603FA06F108436061072A0FDA206C0C
:10040000561E06EB86071F2606FA07F18843561E7E
:1004100006EB860605FA06F1084320644AE00D2A39
:100420000FDAE06BD61F06EB86071F2606FA07F1E8
:100430008843D61F06EB860605FA06F10843E063FB
:1004400038E0132A11DAA06BA2F10D0606EB86073D
:100450001F2606FA07F18843A2F10D0606EB860671
:1004600005FA06F10843A06324E0192A11DA606B4B
:10047000A2F1130606EB86071F2606FA07F188434A
:10048000A2F1130606EB860605FA06F1084360633F
:1004900010E0206BA2F1190606EB86071F2606FA6C
:1004A00007F18843A2F1190606EB860605FA06F164
:1004B00008432063F0BD816841F08041816070474E
:1004C000F0B502460B46002100240025002000BFA5
:1004D00035E0012606FA01F41E6806EA0405A54285
:1004E0002CD110684F000326BE40B0431E794F0048
:1004F000BE40304310601E79012E02D01E79022EBC
:1005000012D190684F000326BE40B0435E794F0081
:10051000BE4030439060506801268E40B0439E79C3
:100520008E40B6B230435060D0684F000326BE40C4
:10053000B043DE794F00BE403043D060491C1029E3
:10054000C7D3F0BD8161704729B1064A12680243E2
:10055000044B1A6004E0034A12688243014B1A609C
:10056000704700001C38024029B1064A1268024355
:10057000044B1A6004E0034A12688243014B1A607C
:10058000704700002038024029B1064A1268024331
:10059000044B1A6004E0034A12688243014B1A605C
:1005A000704700001438024010B5014600220023B5
:1005B00000204A11012A02D1074C236802E0064CB0
:1005C0003434236801F01F02012494401C400CB114
:1005D000012000E0002010BD003802400149086001
:1005E00070470000000047420448006820B10348FB
:1005F0000068401E014908607047000000000020AC
:100600001448006840F480701249086011480830AE
:100610000068114908400F49083108600D4800681A
:100620000E4908400B4908600846006820F4802005
:10063000086008480830006820F47D00054908314A
:1006400008600020091D08604FF000600449086040
:1006500070470000003802400CC0FF88FEFFFEEE2D
:1006600008ED00E00349086000BF0249096800295D
:10067000FBD1704700000020F0B504460D46681E0F
:10068000012102E001EB81067100061EA0F10100CC
:10069000F8D100200BE0B4FBF1F630361654B4FB71
:1006A000F1F601FB1644401C0A26B1FBF6F1A84204
:1006B00002D25E1E8642EED800261654F0BD10B55A
:1006C000012000F001F810BD70B504460025002699
:1006D00025462D09F02000EA05164FF00050164976
:1006E0000860801308604FF47000144908600846E1
:1006F00006600220FFF7B6FF4FF000400E49086089
:10070000254605F00F05F02000EA05164FF00050D1
:100710000860801308604FF47000084908600846BC
:1007200006600120FFF79EFF4FF00040024908607D
:100730000220FFF797FF70BD18040240180802401E
:1007400070B504460025002625462D09F02000EA54
:1007500005164FF42040134908604FF47000124909
:100760000860084606600220FFF77CFF4FF000405B
:100770000C490860254605F00F05F02000EA051633
:100780004FF4204008604FF47000074908600846A5
:1007900006600220FFF766FF4FF000400149086045
:1007A00070BD0000180402401808024070B50446ED
:1007B0000D460026022C03D9102D01D9761E1DE00E
:1007C0002CB905F18001C8B2FFF77EFF16E0012CBD
:1007D00005D105F1C001C8B2FFF776FF0EE0022C8B
:1007E00005D105F19401C8B2FFF76EFF06E0032CB6
:1007F00004D105F1D401C8B2FFF766FF304670BDE1
:1008000010B53348006820F07C4031490860084644
:10081000006840F0A84008602D480C30006840F0A7
:10082000A8402B490C310860081F006840F0A84020
:10083000091F08602748006820F47F4025490860A8
:100840000846006840F4AA40086022480C3000685E
:1008500040F4AA401F490C310860081F006840F4AA
:10086000AA40091F08600120FFF7FCFE2220FFF7C5
:100870002BFF0120FFF7F6FE2C20FFF725FF0120BC
:10088000FFF7F0FE0820FFF71FFF0120FFF7EAFE49
:100890000120FFF719FF0120FFF7E4FE0620FFF714
:1008A00013FF0120FFF7DEFE1420FFF70DFF0120EC
:1008B000FFF7D8FE0C20FFF707FF0120FFF7D2FE5D
:1008C0008020FFF701FF0220FFF7CCFE10BD0000E3
:1008D000000402400008024010B50446E0B2FFF7F1
:1008E0002FFF10BD70B50446102503E02078FFF7F8
:1008F000F3FF641C207820B1281EA5F10101CDB2C0
:10090000F4D170BDF2B0002600249048006840F099
:1009100001008E4908600846006840F00200086047
:100920000846006840F0040008608948006840F408
:100930008030874908600846006840F480200860DD
:1009400083481430006840F4807081491431086095
:10095000804800684FF47A72B0FBF2F1481EB0F1A3
:10096000807F00D31DE0481E4FF0E02250615017F9
:100970000F22002804DB13071F0E774B1F5408E0DB
:1009800013074FEA136C754B00F00F073F1F03F876
:1009900007C000BF00204FF0E022906107201061E7
:1009A00000BFFFF72DFF6EA0FFF79CFF0021012085
:1009B000FFF7FCFE6DA0FFF795FFC820FFF752FE82
:1009C000FFF77DFE01210320FFF7BEFD4FF400403D
:1009D000089001208DF824008DF8260000208DF865
:1009E000270003208DF8250008A96548FFF768FD5A
:1009F0004FF400416248FFF7A5FD02200890032054
:100A00008DF8240000208DF8270008A95D48FFF725
:100A100057FD0120FFF7E2FD00BF2120FFF7C4FDD5
:100A20000028FAD001214802FFF79EFD5648FFF743
:100A300045FC07A8FFF73EFC4FF40030079007A8DD
:100A4000FFF72AFC002001908DF8080001208DF8A6
:100A50000900002003904FF04070049000200590A2
:100A600001208DF8180001A94748FFF745FCFFF762
:100A7000C7FE01214448FFF703FC66E0062301227C
:100A800011464148FFF76BFC01224FF440313E48CC
:100A9000FFF75CFC00BF40213B48FFF723FC002828
:100AA000F9D03948FFF707FD00BF02213648FFF7AC
:100AB00019FC0028F9D0FFF702FE00210846FFF7D5
:100AC00075FE32A0FFF70EFF00210120FFF76EFE3A
:100AD0000BE02D48FFF702FC05462046641C0AA9DE
:100AE00041F820500120FFF7BDFDB4F5FA7FF0DB9F
:100AF000012408E00AA850F82400B04202DD0AA848
:100B000050F82460641CB4F5FA7FF3DB10236EAA5E
:100B100005213046FFF7B0FD01210846FFF746FEEC
:100B20006EA8FFF7DFFE6420FFF79CFDFFF7C7FD0F
:100B300000210846FFF73AFE18A0FFF7D3FE022176
:100B40001148FFF79AFB0026002497E71C38024063
:100B5000000802400400002000E400E018ED00E07E
:100B6000202057534E204B49542020002020205352
:100B7000656E736F7220546573742020200000002E
:100B8000000402400000024000240140202054657F
:100B90006D706572617475726520200020204E654D
:100BA0007874204379636C6520200000CC0B00082A
:100BB000000000202400000060010008F00B000885
:100BC00024000020640600007C01000800000000F2
:100BD0000048E801030406080C101820300000004B
:100BE00000000000000102030406070809000000DD
:04000005080001C12D
:00000001FF
