:020000040800F2
:10000000D0120020150300081D0300081F0300087C
:100010002103000823030008250300080000000056
:100020000000000000000000000000004D02000879
:100030002903000800000000C502000801030008B1
:100040002F0300082F0300082F0300082F030008C8
:100050002F0300082F0300082F0300082F030008B8
:100060002F0300082F0300082F0300082F030008A8
:100070002F0300082F0300082F0300082F03000898
:100080002F0300082F0300082F0300082F03000888
:100090002F0300082F0300082F0300082F03000878
:1000A0002F0300082F0300082F0300082F03000868
:1000B0002F0300082F0300082F0300082F03000858
:1000C0002F0300082F0300082F0300082F03000848
:1000D0002F0300082F0300082F0300082F03000838
:1000E0002F0300082F0300082F0300082F03000828
:1000F0002F03000800000000000000002F0300088C
:1001000000000000000000002F0300082F0300087B
:100110002F0300082F0300082F0300080000000031
:100120002F03000800F002F800F03AF80AA090E867
:10013000000C82448344AAF10107DA4501D100F0A2
:100140002FF8AFF2090EBAE80F0013F0010F18BF35
:10015000FB1A43F001031847F016000010170000C7
:10016000103A24BF78C878C1FAD8520724BF30C8E3
:1001700030C144BF04680C607047000000230024B5
:1001800000250026103A28BF78C1FBD8520728BFA7
:1001900030C148BF0B6070471FB51FBD10B510BD03
:1001A00000F0EEF81146FFF7F7FF0FB400F00CF87F
:1001B0000FBC00F00FFA00F0D1F803B4FFF7EEFF28
:1001C00003BC00F0D7F8000004B000F049FA04487E
:1001D000002100F099FA00F055FA00F0BFF8000095
:1001E0003818000880F309887047EFF309807047DA
:1001F000684680F3098804480078C00714BF0220CD
:10020000032080F314887047F8170008DFF818C03F
:10021000EFF305831B0618BF6047EFF31483DB077A
:1002200008BF604700DF7047D7070008DFF818C035
:10023000EFF305831B0618BF6047EFF31483DB075A
:1002400008BF604700DF7047B5090008EFF3098079
:10025000816911F8021CF1B990E80F10E047EFF343
:10026000098C8CE80700144B93E8060091420FD0EC
:1002700039B12CE9F00FC1F828C00CB400F036FFFA
:100280000CBC1A60D2F828C0BCE8F00F8CF30988C7
:100290006FF0020E704710B5084A1268914209D8F3
:1002A000074C54F8214090E80F10A047EFF3098C59
:1002B0008CE80F0010BD00001C000020CC030008DB
:1002C000CC03000800F0E4FD0C4B93E806009142DB
:1002D00010D0EFF3098C2CE9F00FC1F828C00CB452
:1002E00000F004FF0CBC1A60D2F828C0BCE8F00F84
:1002F0008CF309886FF0020E704700001C0000208C
:1003000000F0BCFFE0E7000000F064FA00F0B6FF88
:10031000DAE700000948804709480047FEE7FEE7A2
:10032000FEE7FEE7FEE7FEE7FEE7FEE7FEE7FEE7A5
:1003300004480549054A064B70470000D1030008F0
:1003400025010008D00C0020D0120020D00E002083
:10035000D00E0020004870476C0C002010B50446F9
:10036000AFF300802046BDE81040FFF726BF70477E
:100370007047704701491820ABBEFEE72600020017
:100380007546FFF7E7FFAE4605006946534620F085
:100390000700854618B020B5FFF7CAFFBDE820402A
:1003A0004FF000064FF000074FF000084FF0000B31
:1003B00021F00701AC46ACE8C009ACE8C009ACE8E4
:1003C000C009ACE8C0098D467047704700000000C6
:1003D0001448006840F480701249086011480830E1
:1003E0000068114908400F49083108600D4800684D
:1003F0000E4908400B4908600846006820F4802038
:10040000086008480830006820F47D00054908317C
:1004100008600020091D08604FF000600449086072
:1004200070470000003802400CC0FF88FEFFFEEE5F
:1004300008ED00E010B5002A06DA22F00042D21DD5
:1004400022F00703102203E0D21C22F003030C2247
:1004500013B19C188C4201D9012010BD0244014403
:100460008360C0E90021C91AD018884202D8106000
:100470000246F9E70020106010BD00000549097828
:10048000002905D000684FF6FF71DFF80CC000DFCF
:100490007047000015000020190E00080449097873
:1004A000002903D00068DFF80CC000DF70470000AF
:1004B00015000020410D000808480068C0010BD558
:1004C00007480068C00707D0054880380068002842
:1004D00002DA04490120087070470000FCED00E0DA
:1004E000800E00E0380000204FF06042D36F002BF8
:1004F000FCD0036BD367D36F002BFCD0C07840EAED
:100500000120A2F87C0070474FF06041CA6F002ABA
:10051000FCD081F87C0070470EB5802200B109B193
:1005200010460AE001780129FAD101A900F020F86B
:10053000042801D0002000E01020DDE9011203B002
:1005400000BD70B50D46040003D012B92078012813
:1005500001D0802070BD204600F0ECFA28B1294679
:10056000204600F030F8002070BD812070BD0000F2
:1005700010B504468089002824D0608904EB8000EF
:1005800000690860606840B16078022805D10021E8
:10059000204600F0CBFC00F0B9FC04F10C0000BFD9
:1005A000D0E85F1F491E8AB2C0E8512F0029F7D159
:1005B0006089401C80B26081E189884201D10020BD
:1005C0006081042010BD10B500F0B0FCBDE8104003
:1005D00000F09CBC08B5002000901E48006840F068
:1005E00004001C4908601C48006840F480301A4927
:1005F000086028E00020009002E00098401C009075
:1006000044F6206100988842F7D3134814300068FC
:1006100040F480701049143108600020009002E01E
:100620000098401C009044F6206100988842F7D35F
:1006300009481430006820F48070074914310860BC
:100640000098401C0090054900988842D2D30020B1
:1006500008BD00001C38024000080240A0860100CE
:10066000EFF3058008B182207047EFF31480C007D4
:1006700003D0DFF80CC000DF704700F08BBF000034
:100680009515000888B0EFF3058010B1822008B0FE
:100690007047EFF3148010F00301134806D00129CE
:1006A0001BD0022911D0032919D113E008A981F325
:1006B00009880078C0070BD05FF0020080F314882F
:1006C000BFF34F8FBFF36F8F09E00078C00706D1EB
:1006D0000320F3E70078C00701D0FF20D7E7DFF859
:1006E0000CC000DFD3E70000F8170008051600086B
:1006F000EFF305820AB1FFF70FBFDFF808C000DF94
:100700007047000071160008EFF305820AB100205F
:100710007047EFF31482D20702D1044A52781AB11B
:10072000DFF80CC000DF704700F0C0BF14000020ED
:10073000AD160008DFF80CC000DFDFF80CC000DFEA
:10074000FEE700001917000835170008DFF804C09D
:1007500000DF70476D170008094C4FF0FF35294640
:100760002068FFF7C5FF02460846102AF7D1FFF7B9
:10077000EDFF0028F3D0024608469047EFE700005F
:1007800004000020012806D0022805D0032804D048
:10079000042804D102E003E002E001E000E000BF31
:1007A00000BF00BFFEE700BFFEE70000074801688A
:1007B0004FF0E0204161002181610721016104487F
:1007C000016841F07F41016040177047F41700084D
:1007D00020ED00E0704750E8001F31B10B6840E8A1
:1007E0000032002AF7D108467047BFF32F8FFAE78F
:1007F00010B568B161B10B3121F0030201684468A2
:100800000B1A1B1B934205D2084609680029F5D133
:10081000002010BD210007D021180368C1E9003273
:10082000016001F1080010BD4260083010BD0000F9
:1008300070B50D46002812D04FF6FF71084C884263
:1008400004D222680146104600F09EFB20684570E5
:10085000044800F0D9F8BDE8704000F059BC70BD04
:100860001C0000203C0C00200F4810B50D494268C8
:100870000E480B680068934204D00A60CB88421E81
:100880001A448A808A8880B282420AD10020086095
:10089000054800F0B9F80146BDE81040024800F0F4
:1008A00097BB10BD300000203C0C00202C00002025
:1008B00070B5194DE86800282CD0A88A401EA8827F
:1008C000002621E0A06838B161684160606810B11D
:1008D000A16881606660A6600F482146183800F064
:1008E00077FBA08AA8826078042804D10B49E08AAB
:1008F00009880844A08201206070E068E860E06830
:1009000008B10561E6602661A88A002802D1EC687A
:10091000002CD7D170BD0000540C00202C0000200A
:1009200070B504000FD00D4DA1780126286882789B
:1009300091420CD900F068FB286846702046BDE85B
:10094000704000F0E5BB064800F05EF8F7E766701F
:100950002146BDE87040024800F03ABB1C00002070
:100960003C0C002010B50446008B084320836278BD
:10097000618B062A18D0052A19D1084217D001EA3E
:100980000002628388432083204600F068FB012038
:100990006070628B0821204600F05DFB2146BDE8B7
:1009A0001040034800F014BB31EA0002EAD010BD49
:1009B0003C0C0020814202D342688A4201D80120C7
:1009C000704702680A60BFF35F8F50E8003F0A6813
:1009D0009A42F6D140E80012002AF2D10020704776
:1009E00068B161B10022083902E00246006830B106
:1009F0008842FAD12AB100681060002070470120B7
:100A0000704700214160F8E70146406842684A604B
:100A10000B780022022B05D0012B03D0032B01D031
:100A20004260704743680BB19960426082607047D2
:100A3000810700D00020704770B50446002015469D
:100A4000207001226270A17084F824106060A060A0
:100A5000E06020612062A082E0822083608384F8CD
:100A60002500E08C18B90548FFF7B5FEE06229467D
:100A70002046BDE8704000F01DB80000B80100201D
:100A800008B1082901D2012070470144091F002242
:100A900001600A6042601046704700000348002170
:100AA000016003490988C1807047000030000020C0
:100AB000E817000870B5C28C1C4D930802D12A8833
:100AC000C2F38D03C26A02EB8302540700D5121FE2
:100AD0004FF0807442E9021400242646B2F140022D
:100AE00042F82460641C0E2CFAD3C469146282623A
:100AF00001632968C90014D5112B12D94FF0FF31B9
:100B0000103B11EB53014FF0CC3305D042F8043CBD
:100B100042F8083D491EF9D1C16A121F8A4200D924
:100B20001360C06A0249016070BD0000E41700084C
:100B3000A52E5AE2C1898089081A704701220270E5
:100B400000224270827042600281428110398281AB
:100B50008908C181704700002DE9F04104464068D2
:100B60000E464FF0000804F10C05E8B36078012749
:100B700001283ED0022813D003285CD10846FFF795
:100B80002AFE050057D02046FFF73EFF04462946BF
:100B900000F05EFA6770204600F061FA214621E01D
:100BA0002046FFF731FF0646002100F051FA218967
:100BB000F06904EB81010861D5E85F0F401C81B248
:100BC000C5E8501F0028F7D12089401C80B2208141
:100BD000E189884201D1A4F808807770304600F09E
:100BE0003EFA3146174800E00CE0BDE8F04100F065
:100BF000EFB92046FFF708FF04463246102100F007
:100C00002AFAC7E7A089E189884216D2208904EB35
:100C100080000661D5E85F0F401C81B2C5E8501F17
:100C20000028F7D12089401C80B22081E1898842C8
:100C300001D1A4F80880BDE8F081BDE8F0410320AF
:100C4000FFF7A0BD3C0C002070B504468089154616
:100C50000026C0B3608904EB8000006908606089E9
:100C6000401C80B26081E189884200D16681606861
:100C700010B1607802280BD014F10C04D4E85F0F97
:100C8000401E81B2C4E8501F0028F7D1002070BD7B
:100C90002046FFF7B9FE0546002100F0D9F9218969
:100CA000E86904EB810108612089401C80B2208141
:100CB000E189884200D12681284600F0D0F92846F3
:100CC000FFF72EFEE2E7FFE73DB10B4862680168DF
:100CD0002AB1204600F07CF908E0012070BD616077
:100CE00001684E6000688460012060700821284619
:100CF000FFF79EFDF1E700001C000020002814D043
:100D0000411C13D00C4A4FF6FE7190420CD800EBF8
:100D10004002C2EBC0120948036803EBC202521E34
:100D2000B2FBF3F0884204D9084670474FF6FF70D3
:100D3000704780B27047000000093D0004180008A9
:100D40002DE9F0410446408820B1314DA1682A6860
:100D5000914202D0FF20BDE8F081401E0004000C4B
:100D6000608053D12968086AA04209D1E06808620E
:100D700008E0C268A24202D1E268C26002E0104606
:100D80000028F6D191F824000A6A06E053681BB1E6
:100D90009B78834200D91846D268002AF6D1887021
:100DA000DFF870806168012611B32046FFF72CFE42
:100DB0000746002100F04CF9384600F050F96680F3
:100DC000A760386AE0603C622968D8F804008A7835
:100DD0008078824201D3384616E00E4800F0F8F8D9
:100DE00039460C4800F0F4F8286846707E700AE036
:100DF000D8F804108A782968824207D9054800F09B
:100E0000E7F8286846700020FFF78AFD0020A2E777
:100E10001C0000203C0C002070B51C4D0E46044602
:100E20004188286861B1A268824210D1A1F57F4053
:100E3000FF3803D0491C6180002070BDFF2070BDC9
:100E4000A060016AE160046201206080F4E776B18D
:100E500091788078814203D29070A06800F0DEF82B
:100E6000606830B12046296800F0B2F808E001203F
:100E700070BD286860602968002048602868846028
:100E800009213046FFF7D4FCF1E700001C000020E8
:100E900070B51B48012102685170006800F0B4F879
:100EA000184D6C7818E000BF05EBC4014868027863
:100EB000EAB1012A20D000F0FFF8E878641C8442EF
:100EC00000D100240F48801CD0E84F1F491EC9B232
:100ED000C0E8421F002AF7D1A8780028E4D16C703E
:100EE0000948FFF791FDBDE8704000F011B909898C
:100EF00089B2FFF737FDE0E78968FFF72DFEDCE7F1
:100F00001C000020280800203C0C00200548017827
:100F100011B101214170704703494FF080500860C2
:100F2000704700002400002004ED00E0F0B4154DEF
:100F3000AB1CEE784FEA0507D3E84F2FB24202D13F
:100F4000BFF32F8F11E0521CD4B2C3E8424F002AE6
:100F5000F2D100BFD7E84F2F541CB44200D1002477
:100F6000E4B2C7E8434F002BF4D1EB78934205D9A4
:100F700005EBC202C2E90101F0BC7047F0BC0220DF
:100F8000FFF700BC28080020104A10B5D368ABB1A9
:100F900013469B8A03E08CB12246A48A2344D4687A
:100FA0008B42F8D3C460D0600261C46804B1206190
:100FB000591A8182908A401A908210BD0024C46020
:100FC000D060C91A02619182848210BD540C002045
:100FD00030B502780023022A03D0012A01D0032A67
:100FE00000D101238C7800E01046426812B1957858
:100FF000A542F9D24A6041601BB102B1916088609C
:1010000030BD0020FBE7000003494A68426000222F
:1010100082604860704700003C0C002010B5836877
:1010200004462BB9607801280ED1084B03E09B6879
:1010300018780028FBD0204600F026F82146BDE8AD
:1010400010401846FFF7C4BF10BD00003C0C002044
:10105000806A01627047806AC0E90812704710B563
:10106000016900290ED0C268CA60C36800223BB182
:101070008B8A848A23448B82C3681961C26000E032
:101080008A82026110BD0000816839B142684A60FD
:101090004168002901D0806888607047054906E0F2
:1010A0004A68824202D14068486070471146002970
:1010B000F6D170473C0C002010B5416881B1FFF7B4
:1010C000A3FC0446FFF7CBFF0120607001462046D9
:1010D000FFF7BEFF2146BDE810400348FFF778BF89
:1010E0004188491C418010BD3C0C00200648006826
:1010F000D0E90A10814203D300680449884202D033
:101100000120FFF73FBB70471C000020A52E5AE2CC
:101110000749022248604270064A1278002A05D028
:1011200006C98A4202D0C078FFF7EEB970470000C6
:101130001C0000203800002070B5FFF7BDF900202A
:101140000446204A204902E042F82040401C0B8817
:101150009842F9D31D48342201881D48FFF76AF9E7
:101160001C48008880B240F000421B4801681B48C0
:10117000FFF760F91A48082201881A480068FFF74B
:1011800059F9194DFF20194AE870EC8400212846CE
:10119000FFF752FC164804210170446015480170A5
:1011A000C460046184821448154905600220687097
:1011B0001248047044700978C170BDE87040FFF7B0
:1011C0006DBC0000AC080020E01700080C180008F7
:1011D00040000020E417000810180008B8010020A3
:1011E000341800080C000020080C0020A707000895
:1011F0003C0C0020540C00201C000020280800207B
:10120000181800081B4810B5016841F47F010160FF
:1012100000684FF07F4101EA00201649C0431439AD
:10122000B0FA80F00968C0F10800C1F302218142E0
:1012300000D3481C0F49091F0B686FF08072824071
:1012400063F317020A60FFF7B1FA0B490028086040
:101250000EDB00F1E021FF2281F8002400F01F02E4
:10126000012191404009800000F1E020C0F8001108
:1012700010BD000020ED00E0280000200C4810B553
:101280000268012151700068FFF7BEFEFFF7ECFA1B
:1012900008480168491C0160FFF70AFB00F072FA78
:1012A0000548FFF7B1FBBDE81040FFF731BF000074
:1012B0001C0000202C0000203C0C0020002805D041
:1012C000810702D10178002900D00020704700007A
:1012D00030B50B4C0023626805E095688D4204D858
:1012E00013461268491B002AF7D10260816012B1CF
:1012F0009568691A91600BB1186030BD606030BDAF
:10130000140000202DE9F0411E46174680460D4688
:1013100011F0FF0F00D14D1C1848FFF75CFA041EB6
:1013200016D0280AE762E084E9B242462046E66128
:10133000FFF782FB01251248124905E000EB850208
:1013400052F8042C32B16D1C0A889542F6D900205F
:10135000BDE8F081002DFAD000EB850040F8044C88
:101360000948E570007818B101212046FFF7BCF864
:101370002046FFF7D5FA2846EAE7000040000020A3
:10138000AC080020E0170008380000202DE9F05FCD
:10139000584DDFF85891DFF8588129684FF0010A5D
:1013A000002618B1CA78AB46824243D14E70FEF790
:1013B0001CFF29688862FFF799FE2868046A1FE00D
:1013C0006068C0B12046FFF71FFB07460021FFF70A
:1013D0003FFE3846FFF743FE87F801A039464648EE
:1013E000FFF7F6FDE168A4F802A0A760386AE060A4
:1013F0003C620C4604E0E0686680A660E660044655
:10140000002CDDD12868C27808EB820141F8046C19
:10141000C16A3A48FFF7CEFA2868C66299F8001008
:1014200011B10021FFF760F835482968FFF7C2FACB
:101430002E6056E03349098888420CD808EB8008B2
:1014400058F8045C3DB12846FFF71EFE2846FFF71A
:1014500006FE2C6A22E0FF20BDE8F09F6068C0B164
:101460002046FFF7D1FA07460021FFF7F1FD384685
:10147000FFF7F5FD87F801A039461F48FFF7A8FDE3
:10148000E168A4F802A0A760386AE0603C620C46FC
:1014900004E0E0686680A660E6600446002CDDD1CA
:1014A00048F8046C1548E96AFFF784FAEE6299F887
:1014B000000018B100212846FFF716F82946104809
:1014C000FFF778FA0C48DBF8001040688B788278D8
:1014D0009A4209D981F801A00748DBF80010FFF70C
:1014E00077FD0020FFF71CFA0020B5E73800002048
:1014F000AC0800201C0000203C0C0020B80100209B
:1015000040000020E017000870B51A4D80B11A4A5B
:10151000128890421FD8194A02EB800050F8044C00
:10152000CCB1A17084F824102868A04205D014E042
:1015300028688170286880F82410114840688078F5
:10154000884215D90E482968FFF742FD2968012015
:10155000487000200AE0FF2070BD2046FFF75EFDC6
:101560006078012804D10648FFF74EFAFFF7D8F952
:10157000002070BD1C000020E0170008AC0800200F
:101580003C0C002002480068002800D0C07870475A
:101590001C00002010B5134C207860B91248400799
:1015A00005D1124801681048FFF76AFA08B1852092
:1015B00010BDFFF7C1FD0E49FF2009688870207833
:1015C00058B900210B4800F041F80B490860002190
:1015D0000A4800F06BF80A490860012020700020DA
:1015E000607010BD14000020780600201418000858
:1015F0001C0000202C180008040000201C18000803
:101600000000002070B50F4D687808B1002070BD53
:101610000D4C206890F824100020FFF775FF20681B
:10162000C178FF2903D1816A203181F3098861687B
:1016300011B9606000202060FFF7E4FD01206870B0
:10164000E4E70000140000201C00002010B5040096
:1016500005D0216819B1606808B102780AB100208C
:1016600010BD8900103189B2FFF768FA606810BDBB
:101670003EB504000D464FF0800012D021780129BC
:101680000FD12846FFF73AFB0246204601A9FFF793
:10169000DBFA012801D0102003E00DB1402000E06A
:1016A0000020DDE9011203B030BD000070B50E4628
:1016B000040029D0206838B3606810F1030F23DBE1
:1016C000032821DCE16829B11048FFF791F80500F3
:1016D0001AD000E000256068E168001D40EA0121A1
:1016E00033462A462068FFF70DFE40B1084901EB5A
:1016F0008000084950F8040C826A516370BD1DB126
:1017000029460248FFF76CF9002070BD78060020DA
:10171000AC0800203507000810B5FFF733FF00289C
:1017200004D0034901EB800050F8040C10BD000008
:10173000AC08002010B5FFF7C1FD18B1C18C19B17C
:10174000C46A02E0802010BD0024C078FFF71EFEAE
:10175000FF2806D01CB121460348FFF741F90020BD
:1017600010BD812010BD00007806002010B5FFF7E5
:101770005FF920B141690A680169104610BD002077
:10178000014610BD2DE9F041134E7468002C1CD0A9
:10179000A068124F401E4FF00108A06012E02546DD
:1017A00024687460002229463868FEF7CAFE10B12A
:1017B0000420FEF7E7FF6879012808D085F8048047
:1017C000002C02D0A0680028E9D0BDE8F0812846AE
:1017D000E968FFF77DFDF3E7140000200400002016
:1017E00007000000C800020105000100001BB7004F
:1017F0000C000000DF2E00000100000002000100CC
:1018000052000400E803000000000000780100001E
:10181000C0040000B00100001000000059070008DB
:101820000200000001000000C800000004000000E9
:10183000C808002000000000D505000800000000D6
:1018400001000000C8000000681800080000002027
:101850003C00000060010008A41800083C000020C3
:10186000941200007C01000800000000000000004D
:101870000000000000000000000000000000000068
:101880000000000000000000000000000000000058
:101890000000000000000000000000000000000048
:0418A0000000000044
:0400000508000315D7
:00000001FF
